:100000000A128A11EA2FFF1B0D2883137F1883170A
:100010000008840A0319FF0A080000308A00040857
:10002000840A82070034013400340A340034643412
:100030000034E8340334103427342034203420349E
:100040002034203420342034203420342034203410
:1000500020342034203420342034003449347434A3
:1000600065346D3420344D346F34763465347234F5
:10007000203442346F3474342034203400344C340F
:100080006534663474342034533465346E347334D8
:100090006F3472343A3420340034573465346C345D
:1000A00063346F346D346534203454346F34203409
:0E00B00020340034253464340034003400342D
:100AB0000B340234F2007208831203138800071209
:100AC000871600008312031387120730F1007D3070
:100AD000F000F00B692DF10B692D0800F20072088F
:100AE000831203138800071687160000831203136E
:100AF00087120730F1007D30F000F00B7D2DF10BF7
:100B00007D2D0800F4007303031D872D882D902D83
:100B1000740880380A128A115A250A128A119D2DEA
:100B200002307306031D952D962D9D2D7408C03837
:100B30000A128A115A250A128A110800F301F30ACF
:100B400000300A128A1182250A128A110B30F30032
:100B50008030F4000A128A11E5250A128A11023047
:100B6000F30000300A128A1182250A128A110B3012
:100B7000F3008030F4000A128A11E5250A128A1166
:100B800008008230F400DD30F300F30BC52DF40BC8
:100B9000C52DCA2D8316031388018701870183128F
:100BA000031387123C300A128A115A250A128A113D
:100BB0000C300A128A115A250A128A1106300A12BA
:100BC0008A115A250A128A110800FA2D7408FF00AA
:100BD000730884000A128A1103200A128A110A1269
:100BE0008A116E250A128A110130F3070318F40ADC
:100BF0000030F407740883120313FF0073088400A5
:100C00000A128A1103200A128A11003A031D092EC2
:100C10000A2EE62D0800780879040319102E112EEB
:100C2000402EFD01FD0A1F2E01300310F80DF90DB5
:100C3000FF3E031D152E0130FC007C08FD07F91F47
:100C4000222E232E142E79087B02031D292E7808CC
:100C50007A02031C2C2E2D2E332E7808FA027908E6
:100C6000031CFB03FB0201300310F90CF80CFF3EE0
:100C7000031D342E0130FD02031D3F2E402E232E76
:100C80007B08F9007A08F8000800F501F601700801
:100C9000710403194C2E4D2E842EF701F70A5B2E9A
:100CA00001300310F00DF10DFF3E031D512E0130F8
:100CB000F4007408F707F11F5E2E5F2E502E0130EE
:100CC0000310F50DF60DFF3E031D602E7108730233
:100CD000031D6C2E70087202031C6F2E702E772E6F
:100CE0007008F2027108031CF303F302751401305B
:100CF0000310F10CF00CFF3E031D782E0130F702BB
:100D0000031D832E842E5F2E7608F1007508F000F7
:100D10000800483083120313A0000B30A1000230FA
:100D2000A20030300A128A1110270A128A114B30A1
:100D300083120313B4000A128A11C1250A128A1100
:100D40000A128A119E250A128A11F301F30A003051
:100D50000A128A1182250A128A113B30F300803070
:100D6000F4000A128A11E5250A128A110230F300F2
:100D700000300A128A1182250A128A111C30F300EF
:100D80008030F4000A128A11E5250A128A111A30FD
:100D900083120313AF005E30AE006D30AD00AD0BBB
:100DA000CF2EAE0BCF2EAF0BCF2ED62E0A128A111E
:100DB0009E250A128A11F301F30A00300A128A11E1
:100DC00082250A128A112D30F3008030F4000A12B5
:100DD0008A11E5250A128A110230F30000300A1246
:100DE0008A1182250A128A113030F3000030F40093
:100DF0000A128A11E5250A128A111A308312031386
:100E0000AF005E30AE006D30AD00AD0B052FAE0B08
:100E1000052FAF0B052F0C2F9B2E0A128A110028CD
:100E200083120313AB002130A600D52F25302C06EA
:100E300003191B2F1C2F262F2B0884002C0883132B
:100E400080000130A3002308AB07D52FA701013094
:100E5000A007FF30200784000A128A110D200A1211
:100E60008A11AC00A300A4012408003A0319392F09
:100E7000D52F2308003A0319E52F643A0319442FAC
:100E80000D3A0319442FD52F260884008313000838
:100E9000A900840A0008AA000230A3002308A607BC
:100EA000AA1F532F542F5D2F0330A3002308A7043C
:100EB000A909AA09A90A0319AA0AAC01AC0A2C08B3
:100EC000A3002307013E84000A128A110D200A1292
:100ED0008A11A4000A128A110D200A128A11A50093
:100EE00025082A02031D762F240829020318792FCA
:100EF0007A2F7B2F852F0130A3002308AC07053004
:100F00002C06031D842F852F5F2F27080339031913
:100F10008A2F8B2F942F2B0884002D308313800071
:100F20000130A3002308AB072C08A800CC2F0A30FF
:100F3000F8000030F9002808A3002307013E8400D0
:100F40000A128A110D200A128A11F0000A128A115F
:100F50000D200A128A11F1002A08F3002908F20074
:100F60000A128A1145260A128A117108FB007008BC
:100F7000FA000A128A110B260A128A117808303EEA
:100F800083120313AC002B0884002C088313800009
:100F90000130A3002308AB07FF30A3002308A807F4
:100FA000280A031DD42FD52F972F0130A007FF301B
:100FB000200784000A128A110D200A128A11AC003F
:100FC0002C08031DE42FE52F162F2B088400831314
:100FD000800108000A128A1158250A128A11B600E7
:100FE0000A128A1159250A128A11B700B001B101FB
:100FF000B201B301B401B50183010A128A11892E2D
:08400000FF3FFF3FFF3FFF3FC0
:04400E00E42FFF3F5D
:00000001FF
